:100000000C942A000C943F000C943F000C943F0089
:100010000C943F000C943F000C943F000C943F0064
:100020000C943F000C943F000C943F000C943F0054
:100030000C943F000C943F000C943F000C943F0044
:100040000C943F000C943F000C943F000C943F0034
:100050000C943F0011241FBECFE5D8E0DEBFCDBF1A
:1000600010E0A0E6B0E0E0E2F6E002C005900D92FC
:10007000AA38B107D9F70E947F020C940E030C94A2
:100080000000413091F018F0423029F10895E82F36
:10009000F0E0EE0FFF1FE059FF4F0190F081E02DDF
:1000A0008081609568236083089590E0880F991F90
:1000B000FC01E059FF4F0190F081E02D3081262FA7
:1000C00020952323208388599F4FDC01ED91FC91DB
:1000D0008081682BE8CFE82FF0E0EE0FFF1FE0599A
:1000E000FF4F0190F081E02DF3CF442319F0413010
:1000F00079F00895E82FF0E0EE0FFF1FE859FF4F69
:100100000190F081E02D80816095682360830895DF
:10011000E82FF0E0EE0FFF1FE859FF4F0190F0814C
:10012000E02D8081682BF2CFE82FF0E0EE0FFF1F6B
:10013000E859FF4F0190F081E02D808168276083AE
:100140000895E82FF0E0EE0FFF1FE05AFF4F0190F7
:10015000F081E02D8081682319F4FA01108208955E
:1001600081E0FA0180830895CF93C82F40E062E0D8
:1001700081E00E94750040E064E081E00E9475002B
:10018000C4FB442740F960E180E00E947500C5FB94
:10019000442740F960E280E00E947500C6FB4427D6
:1001A00040F960E480E00E9475004C2F441F442712
:1001B000441F60E880E00E94750040E068E081E054
:1001C0000E9475002FEF80E792E021508040904020
:1001D000E1F700C0000041E068E081E00E947500A6
:1001E0004C2F417060E180E00E947500C1FB442704
:1001F00040F960E280E00E947500C2FB442740F9AC
:1002000060E480E00E947500C3FB442740F960E889
:1002100080E00E94750040E068E081E00E94750087
:100220002FEF80E792E0215080409040E1F700C03E
:10023000000041E068E081E0CF910C947500CF931D
:10024000C82F41E062E081E00E94750040E064E078
:1002500081E00E947500C4FB442740F960E180E022
:100260000E947500C5FB442740F960E280E00E94CF
:100270007500C6FB442740F960E480E00E947500E9
:100280004C2F441F4427441F60E880E00E94750003
:1002900040E068E081E00E9475002FEF80E792E087
:1002A000215080409040E1F700C0000041E068E04C
:1002B00081E00E9475004C2F417060E180E00E9457
:1002C0007500C1FB442740F960E280E00E947500A0
:1002D000C2FB442740F960E480E00E947500C3FB44
:1002E000442740F960E880E00E94750040E068E043
:1002F00081E00E9475002FEF80E792E0215080405E
:100300009040E1F700C0000041E068E081E0CF915B
:100310000C94750042E06EE081E00E94410042E0F2
:1003200060EF80E00E94410041E068E081E00E94CF
:1003300075002FEF80E792E0215080409040E1F778
:1003400000C0000040E060E180E00E94750041E0F4
:1003500060E280E00E94750040E060E480E00E947E
:10036000750040E060E880E00E94750040E068E0D1
:1003700081E00E9475002FEF80E792E021508040DD
:100380009040E1F700C0000041E068E081E00E9499
:1003900075008CE20E94B4008FE99FE00197F1F7AD
:1003A00000C000008FE00E94B4008FE99FE0019739
:1003B000F1F700C0000081E00E94B4008FE39FE1EC
:1003C0000197F1F700C0000086E00E94B4008FE9B9
:1003D0009FE00197F1F700C0000008950C941F0101
:1003E000CF93DF93EC018991811103C0DF91CF910D
:1003F00008950E941F01F7CF6068862B0C94B4000B
:1004000041E060EF83E00E94410042E06FE083E062
:100410000C9441006F927F928F929F92AF92BF9205
:10042000CF92DF92EF92FF920F931F93CF93DF93C0
:100430001F92CDB7DEB76C01FC011082F12CE12CCC
:1004400066246394712C20E1822E912C53010E2C92
:1004500001C0AA0C0A94EAF740E06A2D83E00E94EA
:10046000750010E000E0AE014F5F5F4FB401002E59
:1004700001C0660F0A94EAF783E00E94A100898117
:10048000811136C0FFEF24E38CE0F1502040804022
:10049000E1F700C00000F801EE0FFF1FEE0FFF1F95
:1004A000E858FF4FEE0DFF1D8081F601808341E08B
:1004B0006A2D83E00E947500F6018081811108C0D9
:1004C000FFEFEF1AFF0A24E0E216F10409F0BECFB5
:1004D0000F90DF91CF911F910F91FF90EF90DF90E0
:1004E000CF90BF90AF909F908F907F906F90089526
:1004F0000F5F1F4F0430110509F0B5CFD8CFCF9350
:10050000DF931F92CDB7DEB788E890E0182F0E94E6
:100510008A010E94000280E2E82E90E2F92E00E2B9
:10052000CC24C394CE0101960E940A02898190EDE9
:10053000980F9A3030F4CC2009F44CC0080F0E9478
:10054000EE01D980DD20B9F08D2D8D7F8D3221F027
:1005500086ED8D0D823078F4CC20A9F162E080E048
:100560000E94FC018D2D0E94EE0163E080E00E945C
:10057000FC01ED2CC12C89818D3329F58BE2E81229
:100580002BC0102F1F0D812F90E00E94F0010E94C0
:100590008A0160E080E00E94FC01802F0E94EE0151
:1005A0008E2D0E94EE018F2D0E94EE0161E080E011
:1005B0000E94FC018DE30E94EE01812F90E00E94D9
:1005C000F001CC24C3948981833409F0ABCF0E941D
:1005D0008A01A8CFF80EB3CF8DE2E81203C0102F26
:1005E0001F19D1CF8AE2E81204C00F9D102D1124EB
:1005F000CACF8FE2E812CBCF802F6F2D0E9402036B
:10060000182FC1CF991B79E004C0991F961708F0E5
:10061000961B881F7A95C9F780950895F894FFCFA7
:1006200039003600330030003B003800350032001E
:100630003A00370034003100373431433835323036
:0A0640003936333D2F2A2D2B200000
:00000001FF
