:100000000C942A000C9434000C9434000C943400AA
:100010000C9434000C9434000C9434000C94340090
:100020000C9434000C9434000C9434000C94340080
:100030000C9434000C9434000C9434000C94340070
:100040000C9434000C9434000C9434000C94340060
:100050000C94340011241FBECFE5D8E0DEBFCDBF25
:100060000E9436000C9446000C940000A29A94E082
:1000700085B3892785BB2AEA36EE46E981E021501F
:10008000304040408040D9F70000F2CFF894FFCFD5
:00000001FF
