:100000000C942A000C943F000C943F000C943F0089
:100010000C943F000C943F000C943F000C943F0064
:100020000C943F000C943F000C943F000C943F0054
:100030000C943F000C943F000C943F000C943F0044
:100040000C943F000C943F000C943F000C943F0034
:100050000C943F0011241FBECFE5D8E0DEBFCDBF1A
:1000600010E0A0E6B0E0EAE5F6E002C005900D92EF
:10007000A837B107D9F70E94A9020C942B030C945E
:100080000000413091F018F0423029F10895E82F36
:10009000F0E0EE0FFF1FE059FF4F0190F081E02DDF
:1000A0008081609568236083089590E0880F991F90
:1000B000FC01E059FF4F0190F081E02D3081262FA7
:1000C00020952323208388599F4FDC01ED91FC91DB
:1000D0008081682BE8CFE82FF0E0EE0FFF1FE0599A
:1000E000FF4F0190F081E02DF3CF442319F0413010
:1000F00079F00895E82FF0E0EE0FFF1FE859FF4F69
:100100000190F081E02D80816095682360830895DF
:10011000E82FF0E0EE0FFF1FE859FF4F0190F0814C
:10012000E02D8081682BF2CFE82FF0E0EE0FFF1F6B
:10013000E859FF4F0190F081E02D808168276083AE
:100140000895E82FF0E0EE0FFF1FE05AFF4F0190F7
:10015000F081E02D8081682319F4FA01108208955E
:1001600081E0FA0180830895813049F018F08230EF
:1001700049F0089542E064E082E00C94410042E0DE
:1001800060E8FACF42E068E083E0F7CF813049F0E1
:1001900018F0823049F0089541E064E082E00C9468
:1001A000750041E060E8FACF41E068E083E0F7CF16
:1001B000813049F018F0823049F0089540E064E061
:1001C00082E00C94750040E060E8FACF40E068E01F
:1001D00083E0F7CF813041F018F0823039F0089594
:1001E00064E082E00C94940060E8FBCF68E083E078
:1001F000F9CF813049F018F0823051F0089540E095
:1002000061E081E00C94410040E060E483E0FACFDB
:1002100040E064E0FBCFAB01813041F018F0823068
:1002200041F0089561E081E00C94A10060E483E076
:10023000FBCF64E0FCCFCF93C82F42E060E180E0C9
:100240000E94410042E060E280E00E94410042E002
:1002500060E480E00E94410042E060E880E00E94AB
:100260004100CC2321F0C13041F0CF91089542E00C
:1002700064E081E0CF910C94410042E062E0F9CF6C
:10028000882319F0813031F0089541E064E081E085
:100290000C94750041E062E0FACF882319F08130B8
:1002A00031F0089540E064E081E00C94750040E096
:1002B00062E0FACFCF938A30F0F4C82F482F417014
:1002C00060E180E00E947500C1FB442740F960E2D4
:1002D00080E00E947500C2FB442740F960E480E0A2
:1002E0000E9475004C2F46954695469560E880E043
:1002F000CF910C947500CF910895EF92FF920F93D8
:100300001F93CF93DF931F92CDB7DEB77C01198285
:1003100010E00FEFBE016F5F7F4F812F0E940B0136
:100320008981F701813049F410830F90DF91CF91DB
:100330001F910F91FF90EF90089500831F5F13307E
:1003400049F7F3CFCF92DF92EF92FF920F931F9373
:10035000CF93DF93282F362FCA01243608F04BC0E5
:10036000643608F048C064E170E00E9417037B0126
:10037000672B09F440C03217F0F1832F3AE0632F66
:100380000E940B03D82EC92E822F0E940B03D82F58
:10039000C92FDD1639F0CA3038F0DF5FDD1658F1AD
:1003A000C0E0F7CFCC16C8F310E000E080E00E9478
:1003B00040018D2F0E945A018FE39CE90197F1F7CC
:1003C00000C0000080E00E944D0181E00E944001D9
:1003D0008C2F0E945A018FE39CE90197F1F700C02E
:1003E000000081E00E944D010F5F1F4FE016F106F3
:1003F000E9F6CF5FCECFDF91CF911F910F91FF90A4
:10040000EF90DF90CF900895BF92CF92DF92EF925E
:10041000FF920F931F93CF93DF93282F362FCA019C
:10042000243608F05CC0643608F059C064E170E01E
:100430000E9417038B01672B09F451C0231708F49E
:100440004EC0832F3AE0632F0E940B03E82EB92E93
:10045000822F0E940B03D82FC92FFF24F394E81298
:10046000F12CED1230C0CB1518F081E0CF3F09F42C
:1004700080E080FF2AC0D12CC12C80E00E94400186
:100480008D2F0E945A018FE39CE90197F1F700C07C
:10049000000080E00E944D0181E00E9440018C2F0D
:1004A0000E945A018FE39CE90197F1F700C0000018
:1004B00081E00E944D019FEFC91AD90A0C151D0554
:1004C000E1F6C150CECFCF3FB1F681E0F81639F05A
:1004D000D150FF24F394ED12F12CC9E0C2CFDF918B
:1004E000CF911F910F91FF90EF90DF90CF90BF9031
:1004F00008950F931F93CF93DF93082F162FEA01D0
:1005000080E00E944001802F0E945A018FE39CE905
:100510000197F1F700C0000080E00E944D0181E0EA
:100520000E944001812F0E945A018FE39CE90197AC
:10053000F1F700C0000081E00E944D01CE010E9451
:100540007D0188818F3FE1F2DF91CF911F910F9163
:100550000895CF93DF931F92CDB7DEB780E00E945E
:10056000F90081E00E94F90082E00E94F90080E039
:100570000E94B40081E00E94B40082E00E94B400B6
:1005800080E00E941B0181E00E941B018FEF8983A4
:1005900089818130E1F038F0823059F1CE01019645
:1005A0000E947D01F5CF80E00E94C6004AEF50E036
:1005B00060E08EE10E94040280E00E94D800AE015B
:1005C0004F5F5F4F60E080E00E947902E1CF81E001
:1005D0000E94C6004AEF50E063E682E30E94A20157
:1005E00081E00E94D800AE014F5F5F4F69E089E073
:1005F000EBCF82E00E94C6004AEF50E068E280E064
:100600000E94A20182E00E94D800AE014F5F5F4FBE
:1006100060E084E0D9CF991B79E004C0991F961758
:1006200008F0961B881F7A95C9F780950895AA1B34
:10063000BB1B51E107C0AA1FBB1FA617B70710F0CD
:10064000A61BB70B881F991F5A95A9F780959095FF
:0A065000BC01CD010895F894FFCF1E
:10065A0039003600330030003B00380035003200E4
:08066A003A00370034003100B2
:00000001FF
