:100000000C942A000C943F000C943F000C943F0089
:100010000C943F000C943F000C943F000C943F0064
:100020000C943F000C943F000C943F000C943F0054
:100030000C943F000C943F000C943F000C943F0044
:100040000C943F000C943F000C943F000C943F0034
:100050000C943F0011241FBECFE5D8E0DEBFCDBF1A
:1000600010E0A0E6B0E0E8EAF4E002C005900D92EE
:10007000A837B107D9F70E94BA010C9452020C9428
:1000800000001F93CF93DF93C82F80E00E94580198
:1000900081E00E9458018FEF8C0F833650F58C2F32
:1000A0006AE00E944602182FD92FCAE081E00E9420
:1000B0008A0180E00E948A01812F0E94970180E0DE
:1000C0000E947D018FE39CE90197F1F700C00000D9
:1000D00080E00E948A018D2F0E94970181E00E949A
:1000E0007D018FE39CE90197F1F700C00000C1504A
:1000F000E9F6DF91CF911F910895413091F018F00A
:10010000423029F10895E82FF0E0EE0FFF1FE0598B
:10011000FF4F0190F081E02D80816095682360831E
:10012000089590E0880F991FFC01E059FF4F01905E
:10013000F081E02D3081262F2095232320838859BC
:100140009F4FDC01ED91FC918081682BE8CFE82F77
:10015000F0E0EE0FFF1FE059FF4F0190F081E02D1E
:1001600080816095F2CF442379F0413061F4E82F2B
:10017000F0E0EE0FFF1FE859FF4F0190F081E02DF6
:100180008081682B60830895E82FF0E0EE0FFF1F59
:10019000E859FF4F0190F081E02D80816095682340
:1001A000F1CFE82FF0E0EE0FFF1FE859FF4F01906D
:1001B000F081E02D8081682760830895E82FF0E0CA
:1001C000EE0FFF1FE05AFF4F0190F081E02D80817C
:1001D000682319F4FA011082089581E0FA018083FE
:1001E0000895813049F018F0823049F0089542E0D6
:1001F00064E082E00C947D0042E060E8FACF42E0E7
:1002000068E083E0F7CF813049F018F0823049F0A0
:10021000089541E064E082E00C94B30041E060E8BE
:10022000FACF41E068E083E0F7CF813049F018F081
:10023000823049F0089540E064E082E00C94B3001D
:1002400040E060E8FACF40E068E083E0F7CF81303B
:1002500041F018F0823039F0089564E082E00C94A7
:10026000D10060E8FBCF68E083E0F9CF813049F04E
:1002700018F0823051F0089540E061E081E00C9484
:100280007D0040E060E483E0FACF40E064E0FBCF33
:10029000AB01813041F018F0823041F0089561E007
:1002A00081E00C94DE0060E483E0FBCF64E0FCCFEF
:1002B000CF93C82F42E060E180E00E947D0042E0E1
:1002C00060E280E00E947D0042E060E480E00E9405
:1002D0007D0042E060E880E00E947D00CC2321F0B8
:1002E000C13041F0CF91089542E064E081E0CF91C8
:1002F0000C947D0042E062E0F9CF882319F0813050
:1003000031F0089541E064E081E00C94B30041E0F5
:1003100062E0FACF882319F0813031F0089540E08F
:1003200064E081E00C94B30040E062E0FACFCF9348
:100330008A30F0F4C82F482F417060E180E00E94BD
:10034000B300C1FB442740F960E280E00E94B300A3
:10035000C2FB442740F960E480E00E94B3004C2FC8
:1003600046954695469560E880E0CF910C94B300A1
:10037000CF910895CF93DF9300D01F92CDB7DEB712
:1003800080E00E94F10081E00E94F10082E00E9482
:10039000F10080E00E94360181E00E94360182E097
:1003A0000E94360180E00E94580181E00E945801BD
:1003B000BE016F5F7F4F80E00E944801BE016D5F0C
:1003C0007F4F81E00E944801BE016E5F7F4F82E057
:1003D0000E94480189818130E1F42FEF83EC99E09C
:1003E000215080409040E1F700C0000080E00E9472
:1003F00003011EE1812F0E9441001150D9F780E0D6
:100400000E948A0181E00E948A0180E00E94150119
:10041000CFCF8B818130D9F42FEF83EC99E021503D
:1004200080409040E1F700C0000081E00E9403019D
:1004300012E3812F0E9441001F5F1436D1F780E044
:100440000E948A0181E00E948A0181E0DFCF8A81D7
:10045000813009F0ADCF2FEF83EC99E0215080403F
:100460009040E1F700C0000082E00E94030110E02C
:10047000812F0E9441001F5F1932D1F780E00E9456
:100480008A0181E00E948A0182E0C0CF991B79E055
:1004900004C0991F961708F0961B881F7A95C9F714
:0804A00080950895F894FFCF48
:1004A80039003600330030003B0038003500320098
:0804B8003A0037003400310066
:00000001FF
