:100000000C942A000C9433010C945C010C9485012F
:100010000C9447000C9447000C9447000C94470044
:100020000C9447000C9447000C9447000C94470034
:100030000C9447000C9447000C9447000C94470024
:100040000C9447000C9447000C9447000C94470014
:100050000C94470011241FBECFE5D8E0DEBFCDBF12
:1000600010E0A0E6B0E0ECE8F9E002C005900D92E7
:10007000AA38B107D9F720E0AAE8B0E001C01D9284
:10008000A039B207E1F70E9438040C94C4040C9420
:1000900000008091600090916100009731F0885CD1
:1000A00091099093610080936000089530E020E012
:1000B000E8ECF0E08091600090916100BF010E9447
:1000C0009C04261737070CF008954FEF83EC99E056
:1000D000415080409040E1F700C000002F5F3F4F4B
:1000E000E9CF413091F018F0423029F10895E82F1E
:1000F000F0E0EE0FFF1FEE58FF4F0190F081E02D72
:100100008081609568236083089590E0880F991F2F
:10011000FC01EE58FF4F0190F081E02D3081262F39
:1001200020952323208386599F4FDC01ED91FC917C
:100130008081682BE8CFE82FF0E0EE0FFF1FEE582C
:10014000FF4F0190F081E02DF3CF442319F04130AF
:1001500079F00895E82FF0E0EE0FFF1FE659FF4F0A
:100160000190F081E02D808160956823608308957F
:10017000E82FF0E0EE0FFF1FE659FF4F0190F081EE
:10018000E02D8081682BF2CFE82FF0E0EE0FFF1F0B
:10019000E659FF4F0190F081E02D80816827608350
:1001A0000895E82FF0E0EE0FFF1FEE59FF4F01908A
:1001B000F081E02D8081682319F4FA0110820895FE
:1001C00081E0FA0180830895813041F018F0823097
:1001D00041F008958BB780648BBF08958BB780681A
:1001E000FBCF8BB78062F8CF813041F018F08230BE
:1001F00041F008958BB78F7B8BBF08958BB78F77B6
:10020000FBCF8BB78F7DF8CF813079F018F082303B
:10021000D9F0089585B78C7F85BF85B7682B65BFFA
:1002200050938F0040938E00089585B7837F85BFDC
:1002300085B794E0699FB0011124682B65BF509386
:100240008D0040938C000895633041F484B780643E
:1002500084BF50938B0040938A0008956230C9F7A1
:1002600084B78F7BF5CF1F920F920FB60F92112498
:100270002F933F934F935F936F937F938F939F93AE
:10028000AF93BF93EF93FF93E0918E00F0918F00B7
:10029000309709F00995FF91EF91BF91AF919F9130
:1002A0008F917F916F915F914F913F912F910F901F
:1002B0000FBE0F901F9018951F920F920FB60F92BE
:1002C00011242F933F934F935F936F937F938F935B
:1002D0009F93AF93BF93EF93FF93E0918C00F091C6
:1002E0008D00309709F00995FF91EF91BF91AF9183
:1002F0009F918F917F916F915F914F913F912F913E
:100300000F900FBE0F901F9018951F920F920FB66F
:100310000F9211242F933F934F935F936F937F938B
:100320008F939F93AF93BF93EF93FF93E0918A00D6
:10033000F0918B00309709F00995FF91EF91BF91F3
:10034000AF919F918F917F916F915F914F913F916D
:100350002F910F900FBE0F901F901895813049F08C
:1003600018F0823049F0089542E064E082E00C9495
:10037000710042E060E8FACF42E068E083E0F7CF46
:10038000813049F018F0823049F0089541E064E08E
:1003900082E00C94A50041E060E8FACF41E068E01B
:1003A00083E0F7CF813049F018F0823049F00895AA
:1003B00040E064E082E00C94A50040E060E8FACF01
:1003C00040E068E083E0F7CF813041F018F0823000
:1003D00039F0089564E082E00C94C40060E8FBCF3B
:1003E00068E083E0F9CF813049F018F0823051F0B5
:1003F000089540E061E081E00C94710040E060E429
:1004000083E0FACF40E064E0FBCFAB01813041F004
:1004100018F0823041F0089561E081E00C94D10041
:1004200060E483E0FBCF64E0FCCFCF93C82F42E0D1
:1004300060E180E00E94710042E060E280E00E94A2
:10044000710042E060E480E00E94710042E060E8F8
:1004500080E00E947100CC2321F0C13041F0CF91A7
:10046000089542E064E081E0CF910C94710042E095
:1004700062E0F9CF882319F0813031F0089541E02E
:1004800064E081E00C94A50041E062E0FACF8823AB
:1004900019F0813031F0089540E064E081E00C947F
:1004A000A50040E062E0FACFCF938A30F0F4C82F85
:1004B000482F417060E180E00E94A500C1FB442705
:1004C00040F960E280E00E94A500C2FB442740F9A9
:1004D00060E480E00E94A5004C2F46954695469525
:1004E00060E880E0CF910C94A500CF910895CF9360
:1004F000C82F40E062E081E00E94A50040E064E097
:1005000081E00E94A500C4FB442740F960E180E03F
:100510000E94A500C5FB442740F960E280E00E94EC
:10052000A500C6FB442740F960E480E00E94A500D6
:100530004C2F441F4427441F60E880E00E94A50020
:1005400040E068E081E00E94A50087EC90E0019720
:10055000F1F700C0000041E068E081E00E94A500E2
:100560004C2F417060E180E00E94A500C1FB442750
:1005700040F960E280E00E94A500C2FB442740F9F8
:1005800060E480E00E94A500C3FB442740F960E8D6
:1005900080E00E94A50040E068E081E00E94A500A4
:1005A00087EC90E00197F1F700C0000041E068E0BF
:1005B00081E0CF910C94A500CF93C82F41E062E079
:1005C00081E00E94A50040E064E081E00E94A50077
:1005D000C4FB442740F960E180E00E94A500C5FB10
:1005E000442740F960E280E00E94A500C6FB442752
:1005F00040F960E480E00E94A5004C2F441F44278E
:10060000441F60E880E00E94A50040E068E081E0CF
:100610000E94A50087EC90E00197F1F700C0000070
:1006200041E068E081E00E94A5004C2F417060E14C
:1006300080E00E94A500C1FB442740F960E280E011
:100640000E94A500C2FB442740F960E480E00E94BC
:10065000A500C3FB442740F960E880E00E94A500A4
:1006600040E068E081E00E94A50087EC90E00197FF
:10067000F1F700C0000041E068E081E0CF910C9408
:10068000A50042E06EE081E00E94710042E060EF70
:1006900080E00E94710041E068E081E00E94A500D6
:1006A0002FEF80E792E0215080409040E1F700C0BA
:1006B000000040E060E180E00E94A50041E060E2CF
:1006C00080E00E94A50040E060E480E00E94A50078
:1006D00040E060E880E00E94A50040E068E081E042
:1006E0000E94A50087EC90E00197F1F700C00000A0
:1006F00041E068E081E00E94A5008CE20E94770260
:100700008FE99FE00197F1F700C000008FE00E94A1
:1007100077028FE99FE00197F1F700C0000081E0C8
:100720000E9477028FE39FE10197F1F700C000007C
:1007300086E00E9477028FE99FE00197F1F700C001
:10074000000008950C94DC02CF93DF93EC018991B3
:10075000811103C0DF91CF9108950E94DC02F7CF91
:100760006068862B0C94770241E06FE082E00E9483
:10077000710042E060EF82E00E94710041E060EFB2
:1007800082E00C94A5006F927F928F929F92AF921D
:10079000BF92CF92DF92EF92FF920F931F93CF936E
:1007A000DF931F92CDB7DEB76C01FC011082F12CF4
:1007B000E12C90E1692E712C88248394912C5301B3
:1007C0000E2C01C0AA0C0A94EAF740E06A2D82E0E0
:1007D0000E94A50010E000E0AE014F5F5F4FB40142
:1007E000002E01C0660F0A94EAF782E00E94D10051
:1007F0008981811136C0FFEF24E38CE0F150204065
:100800008040E1F700C00000F801EE0FFF1FEE0F7F
:10081000FF1FE658FF4FEE0DFF1D8081F60180831C
:1008200041E06A2D82E00E94A500F60180818111DD
:1008300008C0FFEFEF1AFF0A24E0E216F10409F006
:10084000BECF0F90DF91CF911F910F91FF90EF904E
:10085000DF90CF90BF90AF909F908F907F906F90E0
:1008600008950F5F1F4F0430110509F0B5CFD8CFA1
:1008700042E064E082E00E94710042E060E882E0D1
:100880000E94710042E068E083E00E94710040E055
:1008900064E083E00E94710080E00E94E40049E48B
:1008A00050E063E080E00E94040140E068E083E003
:1008B0000E94A50040E064E082E00E94A50040E0C4
:1008C00060E882E00E94A500789480916000909199
:1008D0006100892B51F040E068E083E00E94A500B0
:1008E00041E064E082E00E94A5000E9456008091F1
:1008F000600090916100892B51F040E064E082E05B
:100900000E94A50041E060E882E00E94A5000E94EC
:1009100056008091600090916100892B51F040E079
:1009200060E882E00E94A50041E068E083E00E9468
:10093000A5000E945600C9CF97FB072E16F400941D
:1009400007D077FD09D00E94B00407FC05D03EF423
:10095000909581959F4F0895709561957F4F08956B
:10096000AA1BBB1B51E107C0AA1FBB1FA617B707D5
:1009700010F0A61BB70B881F991F5A95A9F78095F1
:0C0980009095BC01CD010895F894FFCFC4
:10098C00E80339003600330030003B0038003500F6
:10099C0032003A0037003400310031323341343503
:0A09AC003642373839432A3023441D
:00000001FF
