:100000000C942A000C9437010C9460010C94890123
:100010000C9447000C9447000C9447000C94470044
:100020000C9447000C9447000C9447000C94470034
:100030000C9447000C9447000C9447000C94470024
:100040000C9447000C9447000C9447000C94470014
:100050000C94470011241FBECFE5D8E0DEBFCDBF12
:1000600010E0A0E6B0E0E8E2FFE002C005900D92EB
:10007000AC38B107D9F720E0ACE8B0E001C01D9280
:10008000A539B207E1F70E943C040C9492070C9446
:1000900000008091600090916100A0916200B09199
:1000A0006300885C9109A109B10980936000909375
:1000B0006100A0936200B0936300883C9105A105A4
:1000C000B10591F44EE850E064E082E00E94D50072
:1000D0004DE850E060E882E00E94D5004CE850E036
:1000E00068E083E00C94D5000895413091F018F059
:1000F000423029F10895E82FF0E0EE0FFF1FEC5891
:10010000FF4F0190F081E02D80816095682360832E
:10011000089590E0880F991FFC01EC58FF4F019063
:10012000F081E02D3081262F2095232320838459D0
:100130009F4FDC01ED91FC918081682BE8CFE82F87
:10014000F0E0EE0FFF1FEC58FF4F0190F081E02D23
:10015000F3CF442319F0413079F00895E82FF0E00F
:10016000EE0FFF1FE459FF4F0190F081E02D8081D9
:100170006095682360830895E82FF0E0EE0FFF1F7D
:10018000E459FF4F0190F081E02D8081682BF2CF80
:10019000E82FF0E0EE0FFF1FE459FF4F0190F081D0
:1001A000E02D8081682760830895E82FF0E0EE0F4E
:1001B000FF1FEC59FF4F0190F081E02D80816823F3
:1001C00019F4FA011082089581E0FA0180830895FC
:1001D000813041F018F0823041F008958BB780648F
:1001E0008BBF08958BB78068FBCF8BB78062F8CF49
:1001F000813041F018F0823041F008958BB78F7B49
:100200008BBF08958BB78F77FBCF8BB78F7DF8CFE0
:10021000813079F018F08230D9F0089585B78C7F5D
:1002200085BF85B7682B65BF5093940040939300BA
:10023000089585B7837F85BF85B794E0699FB00136
:100240001124682B65BF509392004093910008954C
:10025000633041F484B7806484BF5093900040932E
:100260008F0008956230C9F784B78F7BF5CF1F9256
:100270000F920FB60F9211242F933F934F935F93DA
:100280006F937F938F939F93AF93BF93EF93FF935E
:10029000E0919300F0919400309709F00995FF9157
:1002A000EF91BF91AF919F918F917F916F915F91EE
:1002B0004F913F912F910F900FBE0F901F90189567
:1002C0001F920F920FB60F9211242F933F934F93CB
:1002D0005F936F937F938F939F93AF93BF93EF93AE
:1002E000FF93E0919100F0919200309709F0099509
:1002F000FF91EF91BF91AF919F918F917F916F91FE
:100300005F914F913F912F910F900FBE0F901F90D3
:1003100018951F920F920FB60F9211242F933F93AF
:100320004F935F936F937F938F939F93AF93BF93FD
:10033000EF93FF93E0918F00F0919000309709F0D8
:100340000995FF91EF91BF91AF919F918F917F910F
:100350006F915F914F913F912F910F900FBE0F9032
:100360001F901895813049F018F0823049F00895B7
:1003700042E064E082E00C94750042E060E8FACF6D
:1003800042E068E083E0F7CF813049F018F0823036
:1003900049F0089541E064E082E00C94A90041E056
:1003A00060E8FACF41E068E083E0F7CF813049F0C0
:1003B00018F0823049F0089540E064E082E00C9447
:1003C000A90040E060E8FACF40E068E083E0F7CFC2
:1003D000813041F018F0823039F0089564E082E015
:1003E0000C94C80060E8FBCF68E083E0F9CF81306F
:1003F00049F018F0823051F0089540E061E081E06A
:100400000C94750040E060E483E0FACF40E064E0E3
:10041000FBCFAB01813041F018F0823041F00895FC
:1004200061E081E00C94D50060E483E0FBCF64E000
:10043000FCCFCF93C82F42E060E180E00E947500BE
:1004400042E060E280E00E94750042E060E480E00B
:100450000E94750042E060E880E00E947500CC23B5
:1004600021F0C13041F0CF91089542E064E081E095
:10047000CF910C94750042E062E0F9CF882319F027
:10048000813031F0089541E064E081E00C94A900EE
:1004900041E062E0FACF882319F0813031F008950D
:1004A00040E064E081E00C94A90040E062E0FACF13
:1004B000CF938A30F0F4C82F482F417060E180E07C
:1004C0000E94A900C1FB442740F960E280E00E943D
:1004D000A900C2FB442740F960E480E00E94A90023
:1004E0004C2F46954695469560E880E0CF910C9458
:1004F000A900CF910895CF93C82F40E062E081E03A
:100500000E94A90040E064E081E00E94A900C4FBD1
:10051000442740F960E180E00E94A900C5FB442720
:1005200040F960E280E00E94A900C6FB442740F940
:1005300060E480E00E94A9004C2F441F4427441F20
:1005400060E880E00E94A90040E068E081E00E944D
:10055000A90087EC90E00197F1F700C0000041E0AE
:1005600068E081E00E94A9004C2F417060E180E0CA
:100570000E94A900C1FB442740F960E280E00E948C
:10058000A900C2FB442740F960E480E00E94A90072
:10059000C3FB442740F960E880E00E94A90040E0E6
:1005A00068E081E00E94A90087EC90E00197F1F7F4
:1005B00000C0000041E068E081E0CF910C94A90008
:1005C000CF93C82F41E062E081E00E94A90040E0A3
:1005D00064E081E00E94A900C4FB442740F960E187
:1005E00080E00E94A900C5FB442740F960E280E05A
:1005F0000E94A900C6FB442740F960E480E00E9405
:10060000A9004C2F441F4427441F60E880E00E944B
:10061000A90040E068E081E00E94A90087EC90E03A
:100620000197F1F700C0000041E068E081E00E941E
:10063000A9004C2F417060E180E00E94A900C1FB3D
:10064000442740F960E280E00E94A900C2FB4427F1
:1006500040F960E480E00E94A900C3FB442740F910
:1006600060E880E00E94A90040E068E081E00E942C
:10067000A90087EC90E00197F1F700C0000041E08D
:1006800068E081E0CF910C94A90042E06EE081E047
:100690000E94750042E060EF80E00E94750041E03A
:1006A00068E081E00E94A9002FEF80E792E02150EE
:1006B00080409040E1F700C0000040E060E180E051
:1006C0000E94A90041E060E280E00E94A90040E0B1
:1006D00060E480E00E94A90040E060E880E00E94C1
:1006E000A90040E068E081E00E94A90087EC90E06A
:1006F0000197F1F700C0000041E068E081E00E944E
:10070000A9008CE20E947B028FE99FE00197F1F73C
:1007100000C000008FE00E947B028FE99FE00197FC
:10072000F1F700C0000081E00E947B028FE39FE1AF
:100730000197F1F700C0000086E00E947B028FE97C
:100740009FE00197F1F700C0000008950C94E002CB
:10075000CF93DF93EC018991811103C0DF91CF9199
:1007600008950E94E002F7CF6068862B0C947B020C
:1007700041E06FE083E00E94750042E060EF83E0BB
:100780000E94750041E060EF83E00C94A9006F9235
:100790007F928F929F92AF92BF92CF92DF92EF9211
:1007A000FF920F931F93CF93DF931F92CDB7DEB7C6
:1007B0006C01FC011082F12CE12C90E1692E712C6E
:1007C00088248394912C53010E2C01C0AA0C0A9406
:1007D000EAF740E06A2D83E00E94A90010E000E003
:1007E000AE014F5F5F4FB401002E01C0660F0A9447
:1007F000EAF783E00E94D5008981811136C0FFEFBE
:1008000025EA8EE0F15020408040E1F700C0000072
:10081000F801EE0FFF1FEE0FFF1FE458FF4FEE0D24
:10082000FF1D8081F601808341E06A2D83E00E94F4
:10083000A900F6018081811108C0FFEFEF1AFF0ABD
:1008400024E0E216F10409F0BECF0F90DF91CF91C2
:100850001F910F91FF90EF90DF90CF90BF90AF90DE
:100860009F908F907F906F9008950F5F1F4F04307F
:10087000110509F0B5CFD8CF82E00E94F70180E0E2
:100880000E94B20181E00E94B20182E00E94B201A6
:1008900080E00E94E80049E450E063E080E00E94CC
:1008A00008017894C0E9D1E08091600090916100E6
:1008B000A0916200B0916300892B8A2B8B2B09F4E5
:1008C000B6C180E00E94C401609160007091610037
:1008D00080916200909163000E946E064B015C0162
:1008E00020E030E04AE755E40E94FD066B017C0100
:1008F00020E030E040E85FE30E943A0687FD45C112
:1009000020E03FEF4FE757E4C701B6010E94F80629
:1009100018160CF032C120E030E040E251E4C5018D
:10092000B4010E94FD060E943F066115710509F0A1
:100930001EC180E00E94D60160916000709161004C
:1009400080916200909163000E946E064B015C01F1
:1009500020E030E04AE755E40E94FD066B017C018F
:1009600020E030E040E85FE30E943A0687FD1EC1C8
:1009700020E03FEF4FE757E4C701B6010E94F806B9
:1009800018160CF00BC120E030E040E251E4C50144
:10099000B4010E94FD060E943F066115710509F031
:1009A000F7C081E00E94C401609160007091610015
:1009B00080916200909163000E946E064B015C0181
:1009C00020E030E04AE755E40E94FD066B017C011F
:1009D00020E030E040E85FE30E943A0687FDF7C080
:1009E00020E03FEF4FE757E4C701B6010E94F80649
:1009F00018160CF0E4C020E030E040E251E4C501FC
:100A0000B4010E94FD060E943F066115710509F0C0
:100A1000D0C081E00E94D6016091600070916100B9
:100A200080916200909163000E946E064B015C0110
:100A300020E030E04AE755E40E94FD066B017C01AE
:100A400020E030E040E85FE30E943A0687FDD0C036
:100A500020E03FEF4FE757E4C701B6010E94F806D8
:100A600018160CF0BDC020E030E040E251E4C501B2
:100A7000B4010E94FD060E943F066115710509F050
:100A8000A9C082E00E94C401609160007091610081
:100A900080916200909163000E946E064B015C01A0
:100AA00020E030E04AE755E40E94FD066B017C013E
:100AB00020E030E040E85FE30E943A0687FDA9C0ED
:100AC00020E03FEF4FE757E4C701B6010E94F80668
:100AD00018160CF096C020E030E040E251E4C50169
:100AE000B4010E94FD060E943F066115710509F0E0
:100AF00082C082E00E94D601609160007091610026
:100B000080916200909163000E946E064B015C012F
:100B100020E030E04AE755E40E94FD066B017C01CD
:100B200020E030E040E85FE30E943A0687FD7CC0A9
:100B300020E03FEF4FE757E4C701B6010E94F806F7
:100B400018160CF069C020E030E040E251E4C50125
:100B5000B4010E94FD060E943F066115710509F46B
:100B6000A3CECE010197F1F761507109F6CFCE0106
:100B70000197F1F761507109D8CEC701B6010E9403
:100B80003F06CB010197F1F7D4CE61E070E0F9CFD9
:100B9000CE010197F1F761507109FFCEC701B6018F
:100BA0000E943F06CB010197F1F7FBCE61E070E0B8
:100BB000F9CFCE010197F1F76150710926CFC70136
:100BC000B6010E943F06CB010197F1F722CF61E009
:100BD00070E0F9CFCE010197F1F7615071094DCF67
:100BE000C701B6010E943F06CB010197F1F749CF3B
:100BF00061E070E0F9CFCE010197F1F76150710922
:100C000074CFC701B6010E943F06CB010197F1F7EF
:100C100070CF61E070E0F9CFC701B6010E943F06D6
:100C2000CB010197F1F740CE61E070E0F9CF809100
:100C30008E00813051F480E00E94C40181E00E9466
:100C4000D60182E00E94D6012FCE80918D008130A6
:100C500021F40E94C40180E0F2CF80918C008130A9
:100C600009F022CE82E00E94C40181E00E94D601F8
:100C700080E0E8CF0E94AB0608F481E008950E946E
:100C8000D70688F09F5798F0B92F9927B751B0F041
:100C9000E1F0660F771F881F991F1AF0BA95C9F700
:100CA00014C0B13091F00E94F106B1E008950C94A7
:100CB000F106672F782F8827B85F39F0B93FCCF35A
:100CC000869577956795B395D9F73EF4909580957D
:100CD000709561957F4F8F4F9F4F0895E89409C09D
:100CE00097FB3EF490958095709561957F4F8F4F5F
:100CF0009F4F9923A9F0F92F96E9BB279395F69575
:100D0000879577956795B795F111F8CFFAF4BB0FF2
:100D100011F460FF1BC06F5F7F4F8F4F9F4F16C056
:100D2000882311F096E911C0772321F09EE8872FE0
:100D3000762F05C0662371F096E8862F70E060E09C
:100D40002AF09A95660F771F881FDAF7880F969515
:100D5000879597F90895990F0008550FAA0BE0E8B9
:100D6000FEEF16161706E807F907C0F0121613066D
:100D7000E407F50798F0621B730B840B950B39F4AD
:100D80000A2661F0232B242B252B21F408950A2613
:100D900009F4A140A6958FEF811D811D089557FD8F
:100DA0009058440F551F59F05F3F71F04795880FD9
:100DB00097FB991F61F09F3F79F087950895121670
:100DC00013061406551FF2CF4695F1DF08C016161C
:100DD00017061806991FF1CF8695710561050894CD
:100DE0000895E894BB2766277727CB0197F90895E4
:100DF0000E94AB0608F48FEF08950E9410070C9430
:100E000081070E94730738F00E947A0720F095232B
:100E100011F00C946A070C94700711240C94F206DC
:100E20000E94CF0670F3959FC1F3950F50E0551FB8
:100E3000629FF001729FBB27F00DB11D639FAA272F
:100E4000F00DB11DAA1F649F6627B00DA11D661F7E
:100E5000829F2227B00DA11D621F739FB00DA11D9F
:100E6000621F839FA00D611D221F749F3327A00D59
:100E7000611D231F849F600D211D822F762F6A2FF5
:100E800011249F5750409AF0F1F088234AF0EE0F5A
:100E9000FF1FBB1F661F771F881F91505040A9F787
:100EA0009E3F510580F00C946A070C94F2065F3F58
:100EB000E4F3983ED4F3869577956795B795F795C3
:100EC000E7959F5FC1F7FE2B880F911D969587953B
:100ED00097F9089597F99F6780E870E060E00895BA
:100EE0009FEF80EC089500240A9416161706180642
:100EF0000906089500240A9412161306140605061E
:100F00000895092E0394000C11F4882352F0BB0FAE
:100F100040F4BF2B11F460FF04C06F5F7F4F8F4F11
:080F20009F4F0895F894FFCFE4
:100F2800E803000039003600330030003B00380089
:100F3800350032003A003700340031003132332BAB
:0C0F48003435362D3738392A20303D2F43
:00000001FF
