:100000000C942A000C943F000C943F000C943F0089
:100010000C943F000C943F000C943F000C943F0064
:100020000C943F000C943F000C943F000C943F0054
:100030000C943F000C943F000C943F000C943F0044
:100040000C943F000C943F000C943F000C943F0034
:100050000C943F0011241FBECFE5D8E0DEBFCDBF1A
:1000600010E0A0E6B0E0E4EFF5E002C005900D92EC
:10007000A837B107D9F70E947D010C94F8020C94BF
:100080000000413091F018F0423029F10895E82F36
:10009000F0E0EE0FFF1FE059FF4F0190F081E02DDF
:1000A0008081609568236083089590E0880F991F90
:1000B000FC01E059FF4F0190F081E02D3081262FA7
:1000C00020952323208388599F4FDC01ED91FC91DB
:1000D0008081682BE8CFE82FF0E0EE0FFF1FE0599A
:1000E000FF4F0190F081E02DF3CF442319F0413010
:1000F00079F00895E82FF0E0EE0FFF1FE859FF4F69
:100100000190F081E02D80816095682360830895DF
:10011000E82FF0E0EE0FFF1FE859FF4F0190F0814C
:10012000E02D8081682BF2CFE82FF0E0EE0FFF1F6B
:10013000E859FF4F0190F081E02D808168276083AE
:100140000895E82FF0E0EE0FFF1FE05AFF4F0190F7
:10015000F081E02D8081682319F4FA01108208955E
:1001600081E0FA0180830895813049F018F08230EF
:1001700049F0089542E064E082E00C94410042E0DE
:1001800060E8FACF42E068E083E0F7CF813049F0E1
:1001900018F0823049F0089541E064E082E00C9468
:1001A000750041E060E8FACF41E068E083E0F7CF16
:1001B000813049F018F0823049F0089540E064E061
:1001C00082E00C94750040E060E8FACF40E068E01F
:1001D00083E0F7CF813041F018F0823039F0089594
:1001E00064E082E00C94940060E8FBCF68E083E078
:1001F000F9CF813049F018F0823051F0089540E095
:1002000061E081E00C94410040E060E483E0FACFDB
:1002100040E064E0FBCFAB01813041F018F0823068
:1002200041F0089561E081E00C94A10060E483E076
:10023000FBCF64E0FCCFCF93C82F42E060E180E0C9
:100240000E94410042E060E280E00E94410042E002
:1002500060E480E00E94410042E060E880E00E94AB
:100260004100CC2321F0C13041F0CF91089542E00C
:1002700064E081E0CF910C94410042E062E0F9CF6C
:10028000882319F0813031F0089541E064E081E085
:100290000C94750041E062E0FACF882319F08130B8
:1002A00031F0089540E064E081E00C94750040E096
:1002B00062E0FACFCF938A30F0F4C82F482F417014
:1002C00060E180E00E947500C1FB442740F960E2D4
:1002D00080E00E947500C2FB442740F960E480E0A2
:1002E0000E9475004C2F46954695469560E880E043
:1002F000CF910C947500CF910895CF93DF9300D0E8
:100300001F92CDB7DEB780E00E94F90081E00E9425
:10031000F90082E00E94F9000AE0BE016D5F7F4FA4
:1003200080E00E940B01BE016E5F7F4F81E00E9462
:100330000B01BE016F5F7F4F82E00E940B018B813A
:10034000813009F04FC02FEF83EC99E021508040BD
:100350009040E1F700C0000080E00E94EA001EE14A
:1003600080E00E941B0181E00E941B01812F602F11
:100370000E94EC02E82ED92E22E3F22E81E00E94A8
:100380004D0180E00E944D018E2D0E945A0180E0B7
:100390000E9440018FE39CE90197F1F700C0000043
:1003A00080E00E944D018D2D0E945A0181E00E9443
:1003B00040018FE39CE90197F1F700C00000FA9437
:1003C000F110DCCFD1100CC0E1100AC080E00E9417
:1003D000400181E00E94400180E00E94EA009DCF40
:1003E0001150BECF8A81813009F079C09FEF23EC94
:1003F00089E0915020408040E1F700C0000081E09A
:100400000E94EA0012E380E00E941B0181E00E944A
:100410001B01812F602F0E94EC02D82EE92E92E35F
:10042000F92E81E00E944D0180E00E944D018D2D4A
:100430000E945A0180E00E9440018FE39CE90197ED
:10044000F1F700C0000080E00E944D018E2D0E9457
:100450005A0181E00E9440018FE39CE90197F1F786
:1004600000C00000FA94F110DCCF1F5F143659F67B
:1004700081E00E94EA0081E00E944D0180E00E943C
:100480004D018D2D0E945A0180E00E9440018FE3B2
:100490009CE90197F1F700C0000080E00E944D0147
:1004A0008E2D0E945A0181E00E9440018FE39CE959
:1004B0000197F1F700C00000BE016D5F7F4F80E043
:1004C0000E940B01BE016F5F7F4F82E00E940B0113
:1004D0008B81811122CF8981813069F61ECF89817C
:1004E000813009F01ACF9FEF23EC89E09150204032
:1004F0008040E1F700C0000082E00E94EA0010E0C6
:1005000080E00E941B0181E00E941B01812F602F6F
:100510000E94EC02D82EE92E82E3F82E81E00E94A0
:100520004D0180E00E944D018D2D0E945A0180E016
:100530000E9440018FE39CE90197F1F700C00000A1
:1005400080E00E944D018E2D0E945A0181E00E94A0
:1005500040018FE39CE90197F1F700C00000FA9495
:10056000F110DCCF1F5F193259F682E00E94EA00D9
:1005700081E00E944D0180E00E944D018D2D0E947E
:100580005A0180E00E9440018FE39CE90197F1F756
:1005900000C0000080E00E944D018E2D0E945A0193
:1005A00081E00E9440018FE39CE90197F1F700C0D0
:1005B0000000BE016D5F7F4F80E00E940B01BE0115
:1005C0006E5F7F4F81E00E940B018B818111A5CE70
:1005D0008A81813069F6A1CE991B79E004C0991F08
:1005E000961708F0961B881F7A95C9F7809508958D
:0405F000F894FFCFAD
:1005F40039003600330030003B003800350032004B
:080604003A0037003400310018
:00000001FF
